:020000040800F2
:1000000000500020913F0008253A0008293A0008D6
:100010002D3A0008313A0008353A00080000000087
:10002000000000000000000000000000393A000855
:100030003D3A000800000000413A0008453A000837
:10004000D93F0008D93F0008D93F0008D93F000830
:10005000D93F0008D93F0008D93F0008D93F000820
:10006000D93F0008D93F0008D93F0008D93F000810
:10007000D93F0008D93F0008D93F0008D93F000800
:10008000D93F0008D93F0008D93F0008D93F0008F0
:10009000493A0008D93F0008D93F0008D93F000875
:1000A000D93F0008D93F0008D93F0008D93F0008D0
:1000B000D93F0008D93F0008D93F0008D93F0008C0
:1000C000D93F0008D93F0008D93F0008D93F0008B0
:1000D000D93F0008D93F0008D93F0008D93F0008A0
:1000E000D93F0008D93F0008D93F000800000000B0
:1000F0000000000000000000000000000000000000
:0C01000000000000000000005FF808F1A3
:1001100010B5054C237833B9044B13B10448AFF341
:1001200000800123237010BDA0010020000000000A
:100130006840000808B5034B1BB103490348AFF3FF
:10014000008008BD00000000A401002068400008F5
:1001500081F0004102E000BF83F0004330B54FEA78
:1001600041044FEA430594EA050F08BF90EA020FE5
:100170001FBF54EA000C55EA020C7FEA645C7FEA78
:10018000655C00F0E2804FEA5454D4EB5555B8BF9B
:100190006D420CDD2C4480EA020281EA030382EA0C
:1001A000000083EA010180EA020281EA0303362D9E
:1001B00088BF30BD11F0004F4FEA01314FF4801C71
:1001C0004CEA113102D0404261EB410113F0004F83
:1001D0004FEA03334CEA133302D0524263EB43033A
:1001E00094EA050F00F0A780A4F10104D5F1200ED8
:1001F0000DDB02FA0EFC22FA05F2801841F1000133
:1002000003FA0EF2801843FA05F359410EE0A5F106
:1002100020050EF1200E012A03FA0EFC28BF4CF037
:10022000020C43FA05F3C01851EBE37101F00045ED
:1002300007D54FF0000EDCF1000C7EEB00006EEBFA
:100240000101B1F5801F1BD3B1F5001F0CD3490884
:100250005FEA30004FEA3C0C04F101044FEA4452DB
:1002600012F5800F80F09A80BCF1004F08BF5FEA62
:10027000500C50F1000041EB045141EA050130BD42
:100280005FEA4C0C404141EB010111F4801FA4F1E5
:100290000104E9D191F0000F04BF01460020B1FA3A
:1002A00081F308BF2033A3F10B03B3F120020CDA72
:1002B0000C3208DD02F1140CC2F10C0201FA0CF050
:1002C00021FA02F10CE002F11402D8BFC2F1200CB5
:1002D00001FA02F120FA0CFCDCBF41EA0C0190406B
:1002E000E41AA2BF01EB0451294330BD6FEA0404B4
:1002F0001F3C1CDA0C340EDC04F11404C4F120029F
:1003000020FA04F001FA02F340EA030021FA04F3B0
:1003100045EA030130BDC4F10C04C4F1200220FA07
:1003200002F001FA04F340EA0300294630BD21FA45
:1003300004F0294630BD94F0000F83F4801306BF0B
:1003400081F480110134013D4EE77FEA645C18BFFF
:100350007FEA655C29D094EA050F08BF90EA020F96
:1003600005D054EA000C04BF1946104630BD91EA8E
:10037000030F1EBF0021002030BD5FEA545C05D191
:100380004000494128BF41F0004130BD14F58004D0
:100390003CBF01F5801130BD01F0004545F0FE4144
:1003A00041F470014FF0000030BD7FEA645C1ABF79
:1003B000194610467FEA655C1CBF0B46024650EAB0
:1003C000013406BF52EA033591EA030F41F40021DC
:1003D00030BD00BF90F0000F04BF0021704730B562
:1003E0004FF4806404F132044FF000054FF0000137
:1003F00050E700BF90F0000F04BF0021704730B5F8
:100400004FF4806404F1320410F0004548BF4042CC
:100410004FF000013EE700BF42004FEAE2014FEA21
:1004200031014FEA02701FBF12F07F4393F07F4FFC
:1004300081F06051704732F07F4208BF704793F0FF
:100440007F4F04BF41F40021704730B54FF4607412
:1004500001F0004521F000411CE700BF50EA010215
:1004600008BF704730B54FF000050AE050EA0102BE
:1004700008BF704730B511F0004502D5404261EB2E
:1004800041014FF4806404F132045FEA915C3FF46F
:10049000D8AE4FF003025FEADC0C18BF03325FEA0C
:1004A000DC0C18BF033202EBDC02C2F1200300FABD
:1004B00003FC20FA02F001FA03FE40EA0E0021FAE2
:1004C00002F11444BDE600BF70B54FF0FF0C4CF4D0
:1004D000E06C1CEA11541DBF1CEA135594EA0C0F82
:1004E00095EA0C0F00F0DEF82C4481EA030621EABD
:1004F0004C5123EA4C5350EA013518BF52EA0335F8
:1005000041F4801143F4801338D0A0FB02CE4FF0A9
:100510000005E1FB02E506F00042E0FB03E54FF0D9
:100520000006E1FB03569CF0000F18BF4EF0010ED1
:10053000A4F1FF04B6F5007F64F5407404D25FEACD
:100540004E0E6D4146EB060642EAC62141EA555180
:100550004FEAC52040EA5E504FEACE2EB4F1FD0CC2
:1005600088BFBCF5E06F1ED8BEF1004F08BF5FEA40
:10057000500E50F1000041EB045170BD06F00046F2
:1005800046EA010140EA020081EA0301B4EB5C049F
:10059000C2BFD4EB0C0541EA045170BD41F4801197
:1005A0004FF0000E013C00F3AB8014F1360FDEBFBC
:1005B000002001F0004170BDC4F10004203C35DA98
:1005C0000C341BDC04F11404C4F1200500FA05F31B
:1005D00020FA04F001FA05F240EA020001F00042BC
:1005E00021F0004110EBD37021FA04F642EB060132
:1005F0005EEA430E08BF20EAD37070BDC4F10C045C
:10060000C4F1200500FA04F320FA05F001FA04F21F
:1006100040EA020001F0004110EBD37041F100010B
:100620005EEA430E08BF20EAD37070BDC4F1200516
:1006300000FA05F24EEA020E20FA04F301FA05F27E
:1006400043EA020321FA04F001F0004121FA04F226
:1006500020EA020000EBD3705EEA430E08BF20EAF6
:10066000D37070BD94F0000F0FD101F00046400030
:1006700041EB010111F4801F08BF013CF7D041EAB2
:10068000060195F0000F18BF704703F000465200B6
:1006900043EB030313F4801F08BF013DF7D043EA87
:1006A0000603704794EA0C0F0CEA135518BF95EA3D
:1006B0000C0F0CD050EA410618BF52EA4306D1D1C4
:1006C00081EA030101F000414FF0000070BD50EAE3
:1006D000410606BF1046194652EA430619D094EA6D
:1006E0000C0F02D150EA013613D195EA0C0F05D157
:1006F00052EA03361CBF104619460AD181EA0301AB
:1007000001F0004141F0FE4141F470014FF0000062
:1007100070BD41F0FE4141F4780170BD70B54FF0FD
:10072000FF0C4CF4E06C1CEA11541DBF1CEA13557D
:1007300094EA0C0F95EA0C0F00F0A7F8A4EB05045F
:1007400081EA030E52EA03354FEA013100F0888056
:100750004FEA03334FF0805545EA131343EA12631F
:100760004FEA022245EA111545EA10654FEA0026D4
:100770000EF000419D4208BF964244F1FD0404F58D
:10078000407402D25B084FEA3202B61A65EB0305E9
:100790005B084FEA32024FF480104FF4002CB6EBA6
:1007A000020E75EB030E22BFB61A754640EA0C0026
:1007B0005B084FEA3202B6EB020E75EB030E22BF66
:1007C000B61A754640EA5C005B084FEA3202B6EBA7
:1007D000020E75EB030E22BFB61A754640EA9C0066
:1007E0005B084FEA3202B6EB020E75EB030E22BF36
:1007F000B61A754640EADC0055EA060E18D04FEAF4
:10080000051545EA16754FEA06164FEAC30343EA93
:1008100052734FEAC2025FEA1C1CC0D111F4801F60
:100820000BD141EA00014FF000004FF0004CB6E759
:1008300011F4801F04BF01430020B4F1FD0C88BFF8
:10084000BCF5E06F3FF6AFAEB5EB030C04BFB6EB03
:10085000020C5FEA500C50F1000041EB045170BDF6
:100860000EF0004E4EEA113114EB5C04C2BFD4EB23
:100870000C0541EA045170BD41F480114FF0000EA7
:10088000013C90E645EA060E8DE60CEA135594EA23
:100890000C0F08BF95EA0C0F3FF43BAF94EA0C0F26
:1008A0000AD150EA01347FF434AF95EA0C0F7FF49B
:1008B00025AF104619462CE795EA0C0F06D152EAEF
:1008C00003353FF4FDAE1046194622E750EA4106D3
:1008D00018BF52EA43067FF4C5AE50EA41047FF4E4
:1008E0000DAF52EA43057FF4EBAE12E74A0011D296
:1008F00012F5001211D20DD56FF47873B3EB62527A
:100900000ED44FEAC12343F0004343EA505323FA85
:1009100002F070474FF00000704750EA013002D1FA
:100920004FF0FF3070474FF00000704738B54FF47C
:100930007A730D490D4A09781268B3FBF1F3054645
:10094000B2FBF3F000F0A2F808B90F2D01D9012095
:1009500038BD0446024629464FF0FF3000F052F8F9
:10096000034B20461D6038BD000000201801002008
:1009700004000020074A08B51368032043F0100361
:10098000136000F02DF80020FFF7D0FF03F02AF8E5
:10099000002008BD00200240034A044B11681B7868
:1009A0000B441360704700BF2002002000000020AD
:1009B000014B1868704700BF2002002038B504467C
:1009C000FFF7F6FF631C054602D0044B1B781C445E
:1009D000FFF7EEFF401BA042FAD338BD0000002015
:1009E0004FF6FF01064A0002D36800F4E0600B40B6
:1009F00043F0BF6343F400330343D360704700BF49
:100A000000ED00E0184B30B4DB68C3F30223C3F100
:100A10000705042D03F1040428BF0425062C19D969
:100A20004FF0FF34033B9C4022EA04044FF0FF32B6
:100A3000AA4021EA020101FA03F22243120100282E
:100A4000D2B20ADB00F1604000F5614080F800237B
:100A500030BC704700242346E8E7044B00F00F0049
:100A600003441A7630BC704700ED00E0FCEC00E077
:100A7000002807DB012300F01F01034A8B404009D7
:100A800042F82030704700BF00E100E00138B0F1CB
:100A9000807F0DD230B4F02500220721054B064C93
:100AA000586084F82350104630BC9A601960704733
:100AB0000120704710E000E000ED00E00A68002A25
:100AC00000F0DB802DE9F04F4FF0000A85B055466D
:100AD000DFF8D0C1DFF8D0E16D4FDFF8D08103E05F
:100AE000013532FA05F378D00123AB4002EA030462
:100AF000A342F5D14A68122A00F09E8000F2878056
:100B0000022A00F09D807CD9032A69D0112A02D1E3
:100B1000CB6803F1040AFF2C66D881460368AA005B
:100B20000F2606FA02FB23EA0B030AFA02F213432A
:100B3000C9F800304A68D30061D5DCF8189025F078
:100B4000030349F00109CCF81890DCF8189003F180
:100B5000804309F00109CDF80C9003F5803305F0CE
:100B60000309DDF80CB04FEA8909D3F808B006FA9A
:100B700009F62BEA06067045019611D0404563D070
:100B8000444EB0427AD0444EB0420CBF4FF0030BFB
:100B90004FF0040B019E0BFA09F946EA090601968B
:100BA0009E603B68D6034CBF2343A3433B607B68F6
:100BB00096034CBF2343A3437B60BB68D6024CBF64
:100BC0002343A343BB609202FB6815D51C43FC6022
:100BD0000A68013532FA05F386D105B0BDE8F08F19
:100BE000FF2C4FF0000A98D905F18042083A43687B
:100BF000920000F1040993E723EA0404FC600A6808
:100C00006EE7A2B1012A86D1D1F80CA083E7234E6A
:100C1000B2420CD020D9224EB24208D006F580361E
:100C2000B24204D0A6F58016B2427FF474AF8A684F
:100C3000E2B94FF0040A6EE7CB6803F10C0A6AE7E9
:100C4000CB6803F1080A66E74FF0010B0BFA09F9CC
:100C500046EA09060196A3E7A6F58016B242E6D059
:100C600006F58036B2427FF456AFE0E7012A0CBFAA
:100C7000036143614FF0080A4DE770474FF0020BE4
:100C8000019E0BFA09F946EA0906019688E700BFBA
:100C90000004014000100140001401400000211038
:100CA000000031100010024000080140000C01401B
:100CB00002B9090401617047F0B587B0002874D00B
:100CC00090F82932044603F0FF02002B68D003237A
:100CD000264684F82932206800F08AFF56F810CBA7
:100CE0006D4637460FCF0FC53B68271D2B6060460A
:100CF00097E80E0000F06AFF054630B10223012597
:100D000084F82932284607B0F0BD0146206800F07B
:100D100079FFD4F804C0BCF1000F29D028464FF069
:100D2000010E2A4604EB4013451C83F82800D886A0
:100D3000E8B2604583F829E083F82B20C3E90E224E
:100D40001A64EFD30023194604EB43125D1C03F130
:100D50000A0082F82831EBB24001634582F829117C
:100D600082F82B11C2F83811C2F83C112150EBD394
:100D70000FCE6D46D4F800C00FC5336860462B60B7
:100D800097E80E0000F040FF05460028B6D1012389
:100D900084F82400206884F8293201F053FBB1E77D
:100DA00080F8282202F0AAFE91E70125284607B024
:100DB000F0BD00BF90F82832012B10D0012110B5F2
:100DC000044680F8281202F0BBFF206801F038FBCF
:100DD000206800F003FF002084F8280210BD0220E4
:100DE000704700BF2DE9F84F0446006801F02CFB66
:100DF0000104226843D4104601F026FB460500F1A9
:100E00007181206801F020FB10F4804F206807D02A
:100E1000B0F8443023F480431B041B0CA0F844308A
:100E200001F012FB10F4005F206807D0B0F84430E6
:100E300023F400531B041B0CA0F8443001F004FB06
:100E4000C50400F13181206801F0FEFA000500F1CF
:100E50000481206801F0F8FA820500F1F180206831
:100E600001F0F2FAC30508D52268B2F8443023F441
:100E700080731B041B0CA2F84430BDE8F88FDFF828
:100E800014A4DFF814B4B2F844301F04B3D5B2F898
:100E9000441089B211F00F0557D111F010011388D9
:100EA00000F03E819BB213F4006540F07A811B0490
:100EB000E9D540F68F7311880B4043F0800313800F
:100EC000B2F8503094F8281103EBC10302EB43034E
:100ED000B3F80C34C3F30903C4F844319BB1D4F81C
:100EE0003C1181B11046B4F82E2101F0B3FAD4F8C8
:100EF0003C31D4F8442129461344C4F83C312046FF
:100F000002F022FE2268B2F85030D4F838119BB2B9
:100F100002F20C40002940F09881C15A21F4F841B6
:100F20000904090CC152C15A6FEA41416FEA5141AB
:100F300089B2C1521188D64B0B4083F4405343F41D
:100F4000004343F0800313809DE732F82560B6B27A
:100F5000310426D4330696D532F8251004EB451318
:100F60000AEA010141F4004122F82510B2F85010BC
:100F700093F82850D86B01EBC50102EB4101B1F8A1
:100F800004141D6CC1F3090146185964DE63002D79
:100F900040F0EF8093F82810204602F0DDFD226833
:100FA00071E740F68F7332F825106F010B4043F064
:100FB000800322F8253004EB070999F8343102F553
:100FC0008060002B00F00F8199F8283132F823C09F
:100FD00002EB83011CF4804FB2F850C04FEAC30308
:100FE000634400F01B81023330F81380C8F3090812
:100FF000B8F1000F40F05D810B880BEA030343F466
:10100000004343F0C0030B802744D7F84421D7F8AE
:101010003C31D7F8400142444344C7F84421C7F863
:101020003C31002800F0F780D7F8382197F82811D4
:10103000904580F01481204602F086FD226889E701
:1010400022682046B2F8443023F400731B041B0CC2
:10105000A2F8443002F088FD01E72368B3F840208D
:10106000184642F00802A3F84020B3F8442022F4C6
:1010700000621204120CA3F84420B3F8402042F09E
:101080000402A3F8402001F0DFF9C10408D522686A
:10109000B2F8443023F480531B041B0CA2F84430F4
:1010A000204602F077FDD4E622682046B2F84030B0
:1010B00023F004031B041B0CA2F84030B2F84030AC
:1010C00023F008031B041B0CA2F8403002F072FD51
:1010D0002068B0F8443023F480531B041B0CA0F8A4
:1010E0004430B1E622682046B2F8443023F48063ED
:1010F0001B041B0CA2F8443002F03AFD94F828328D
:10110000012B3FF47EAE0025012384F8245084F89F
:1011100028322946206801F08DF984F8285270E6BB
:101120000AEA030343F400431380B2F8503094F802
:101130002800E56B03EBC00302EB4302B2F8043472
:101140002046C3F309031D446364E56302F004FD14
:1011500094F824301BB3236C2268002B7FF493AEE9
:1011600094F8241041F08001A2F84C1084F8243047
:1011700089E64FF0000C012793F82830104603F061
:10118000070251016318283183F82820C3E90F654D
:101190002144C3F844C083F8297000F0ADFF2268F1
:1011A00071E6B2F8503094F82811104603EBC103F1
:1011B00002EB4302B2F80C3404F50C71C3F30903DB
:1011C000B4F82E21C4F8443101F044F940F68F738D
:1011D0002268204611880B4043F08003138002F000
:1011E000ADFC22684FE6B2F8503099F8281106336A
:1011F00003EBC10330F81380C8F30908B8F1000FFE
:101200003FF402AF10464346B9F82E21D9F83C11FD
:1012100001F020F9F8E697F828110CE7063330F8CA
:101220001380C8F30908B8F1000F3FF4E5AE434658
:101230001046B9F83221D9F83C1101F00BF999F8B0
:101240002831216801EB8301D6E63E2926D84D08D6
:10125000CF0748BF0135AD02ADB2C5526AE64FF0C7
:10126000000C01F007014F01E21907F5947782F8AD
:101270002811C2F84001C2F83C31C2F844C182F8DA
:1012800029C1E119206800F037FF226862E600BF3B
:101290008FBFFFFF0F8FFFFF8F8FFFFF4D09CE0620
:1012A000064908BF05F1FF3541EA8525ADB2C552B3
:1012B00040E610464346B9F83021BCE70080FFFF06
:1012C00090F82822012A0DD010B50446012284F896
:1012D000241080F82822006801F0ACF8002084F87F
:1012E000280210BD02207047F8B501F00705090675
:1012F0004FEA45141FD40027061904F5947186F8A7
:10130000297101444C780D700A61CB7004B1CD8114
:10131000022B04BF00230B7190F82832012B12D04E
:101320000123044680F82832006800F087FC002082
:1013300084F82802F8BD0127061904F1280186F86F
:1013400029700144DEE70220F8BD00BF01F007026A
:10135000090610B54FEA421316D40024C11803F54C
:10136000947381F82941C1180A7090F82832012B32
:1013700015D00123044680F82832006800F0E6FD0D
:10138000002084F8280210BD0124C118283381F8F8
:101390002940C1180A7090F82832012BE9D10220A7
:1013A00010BD00BF70B5002601F007014D014419C2
:1013B00005F5947584F82811C4F83C214119C4F846
:1013C00040310068C4F8446184F8296100F094FE5B
:1013D000304670BDF8B50026012701F007014D0128
:1013E0004419283584F82810C4E90F2341190068EE
:1013F00084F82970666400F07FFE3046F8BD00BFB7
:1014000038B5436801F007059D421BD80B061BD475
:1014100000244901431883F82941012301F59472FE
:1014200081180D708B7090F828229A421BD00446C8
:1014300080F82832006800F087FFB5B1002084F8FA
:10144000280238BD012038BD01226B0103F12801BB
:10145000034483F82920012301440D708B7090F818
:1014600028229A42E3D1022038BD04F50C7120688D
:1014700000F0EEFFE2E700BF38B5436801F00F026D
:101480009A421ED801F0070209064FEA42131AD405
:101490000025C41884F82951002503F594710144EE
:1014A0000A708D7090F82832012B1AD0012304465F
:1014B00080F82832006800F069FF84F82852284636
:1014C00038BD012038BD0125C41884F829500025F5
:1014D00003F1280101440A708D7090F82832012B25
:1014E000E4D1022038BD00BF11F0800F0DD001F013
:1014F000070100EB4110283099B26AB101221B0CA0
:101500004381018102730020704700EB411000F518
:10151000947099B2002AF1D1C18002730020704703
:10152000002800F055812DE9F041036882B0DD0705
:10153000044635D5A8494A6802F00C02042A00F096
:1015400005814A6802F00C02082A00F0FB806368FB
:10155000B3F5803F10D0002B00F02081B3F5A02F11
:1015600000F078819C4B1A6822F480321A601A6865
:1015700022F480221A6004E0974A136843F480330F
:101580001360FFF715FA944D064605E0FFF710FAD1
:10159000801B642800F2F5802B689A03F6D5236837
:1015A0009F074DD41A0722D5A369002B00F0BA80FB
:1015B00001228A4B884D1A60FFF7FAF9064605E0CA
:1015C000FFF7F6F9801B022800F2DB806B6A9B07AD
:1015D000F6D5834B834A1B68A2FB03235B0A019366
:1015E00000BF019B5A1E0192002BF9D123685D07B1
:1015F00069D5794BDA69D00000F1EC800125DA6910
:1016000042F08052DA61DB6903F080530093009B63
:10161000754B1A68D10540F1A380E368012B37D0E0
:10162000002B00F0E780052B6B4B1A6A00F01F813E
:1016300022F001021A621A6A22F004021A622CE0F5
:10164000654A516811F00C0F61D0516801F00C012E
:10165000082959D02369002B00F0EB800122634B4D
:101660005D4D1A60FFF7A4F9064605E0FFF7A0F903
:10167000801B022800F285802B689807F6D52B681E
:10168000626923F0F80343EAC2032B60236889E709
:10169000514A136A43F001031362FFF789F94E4E72
:1016A000804641F2883705E0FFF782F9A0EB080099
:1016B000B84266D8336A9B07F6D525B1464AD36946
:1016C00023F08053D361E069D0B1434D6A6802F0E2
:1016D0000C02082A00F0D38002284FF00001444A8F
:1016E00000F0DE801160FFF763F92C46054604E048
:1016F000FFF75EF9401B022843D823689B01F7D40B
:10170000002002B0BDE8F0815268D603A2D4324A6C
:101710001268950739D52269012A36D0012002B016
:10172000BDE8F0812D4A2C4D1360FFF741F90646C4
:1017300004E0FFF73DF9801B022822D86B6A9F075F
:10174000F7D453E74A68D0037FF501AF224A126805
:1017500091037FF525AF6268002A7FF421AFDDE7B2
:101760001A681E4642F480721A60FFF721F9074694
:101770003368DA053FF551AFFFF71AF9C01B64284B
:10178000F6D9032002B0BDE8F081134960690A6808
:1017900022F0F80242EAC0020A6003E703F1804344
:1017A00003F504331A681D4622F480321A601A6861
:1017B00022F480221A60FFF7FBF8064604E0FFF7E8
:1017C000F7F8801B6428DCD82B689B03F7D4E6E687
:1017D0000120704700251BE70010024080044242B0
:1017E00018010020D34D62100070004000004242FA
:1017F0006000424203F1804303F504331A6A1E4637
:1018000022F001021A621A6A41F2883822F00402B8
:101810001A62FFF7CDF8074604E0FFF7C9F8C01BCE
:101820004045AED8336A9807F7D4002D3FF44BAF4C
:1018300044E7344A344D1360FFF7BAF8064604E033
:10184000FFF7B6F8801B02289BD82B689907F7D4BE
:101850002368A7E603F18043A3F53C331A6842F4FA
:1018600080221A601A6842F480321A6089E642F0D7
:1018700004021A621A6A42F001021A620DE7012894
:101880003FF44DAF6B68226A03F4803191427FF4DC
:1018900045AF606A03F47013181A18BF01203EE7C1
:1018A0001160FFF785F8064605E0FFF781F8801B19
:1018B00002283FF666AF2B689901F6D4226AB2F58A
:1018C000803F05D16B68A16823F400330B436B6044
:1018D00001250D4B606A5968024321F474110B48CD
:1018E0000A435A6005601C46FFF762F8054605E0AA
:1018F000FFF75EF8401B02283FF643AF23689A01CA
:10190000F6D5FDE60000424200100240600042426F
:1019100078B1614A136803F007038B420BD2136856
:1019200023F007030B431360136803F007038B4294
:1019300001D0012070472DE9F041036886B09D0772
:1019400014D55C0704D5554C626842F4E0626260CD
:101950001A0704D5514C626842F4605262604F4CE1
:101960008568626822F0F0022A436260DB07044661
:101970000D4621D54268494B012A1B6867D0022ACF
:1019800000F08180980727D5444E41F2883873686B
:1019900023F0030313437360FFF70AF8074604E0DC
:1019A000FFF706F8C01B40456BD87368626803F008
:1019B0000C03B3EB820FF3D1374A136803F007032C
:1019C000AB420DD9136823F007032B431360136850
:1019D00003F00703AB4203D0012006B0BDE8F0815D
:1019E0002368590706D52D49E0684A6822F4E06269
:1019F00002434A601A0707D5284A2169536823F42D
:101A0000605343EAC103536040F20122244B06AC09
:101A1000ADF804200FCB04E90F0020494A6802F01A
:101A20000C03042B16D0082B16D01E4B1B4A1E4845
:101A300052681E49C2F30312805C1D4AC340086805
:101A40001360FEF773FF002006B0BDE8F0819F032E
:101A50009AD4C1E7174BE9E706A8C2F383430344CE
:101A600013F8100CD30312D54A68124BC2F340424C
:101A700003FB00F306A90A4412F8142CB3FBF2F39B
:101A8000D4E70320A9E79E013FF57EAFA4E70A4B08
:101A900003FB00F3CAE700BF002002400010024031
:101AA0008040000800127A009040000804000020E6
:101AB00018010020001BB70000093D00014B186809
:101AC000704700BF180100202DE9F041044600686E
:101AD00082B0C5072AD53A4BDA69D1003DD5394BDA
:101AE00000251A68D20546D5354960680A6A12F49D
:101AF00040720FD000F4407393420BD001270026B0
:101B00000B6A314A23F44070176016600862D807E8
:101B100045D460682A4A136A23F44073034313626E
:101B20001DB1D36923F08053D3612068830706D5A4
:101B3000234AA168536823F440430B43536010F0D9
:101B4000100007D000201E4AE168536823F4800388
:101B50000B43536002B0BDE8F081DA69012542F021
:101B60008052DA61DB6903F080530193019B154BCE
:101B70001A68D205B8D41A681E4642F480721A60F8
:101B8000FEF716FF07463368DB05ADD4FEF710FFFE
:101B9000C01B6428F7D9032002B0BDE8F0810E46CF
:101BA000FEF706FF41F288378046336A9A07B0D4C1
:101BB000FEF7FEFEA0EB0800B842F6D9EBE700BF47
:101BC00000100240007000404004424284B001A86E
:101BD00080E80E0004B00020704700BF0246B0F855
:101BE0004030002043F43F43A2F84030704700BF2C
:101BF00044F2FF030246B0F8401000200B40A2F868
:101C0000403070470020704784B070B4044601250E
:101C10000020A4F84050A4F84000A4F84400A4F820
:101C20005000B4F8406004AD46F43F46A4F840606C
:101C300085E80E0070BC04B0704700BF70B40D782A
:101C4000034630F82540BC4AC8782240032800F2F9
:101C50004281DFE800F04E46024A002048F280044C
:101C6000224323F825200D78B44E33F825202C4349
:101C70003240224323F825200A7B002A3DD1CC881C
:101C80000A784D786408640003EB0212002D00F01E
:101C9000E880B3F850502A44A2F800440A7833F898
:101CA000225003EB82046D060BD533F82240264008
:101CB00046F4004646F0C00623F822600C7803EB99
:101CC0008404CB78012B00F0208122889C4B1340A8
:101CD00083F0200343F4004343F08003238070BC6F
:101CE000704742F480620020B8E742F4C0620020EE
:101CF000B4E742F400720020B0E70C7833F82420F7
:101D0000324042F4014242F0800223F824200A7853
:101D10000C89B3F8505003EB0212640802F580629C
:101D20006400ADB254530A784C89B3F8505003EBB9
:101D30000212640802F581626400ADB254534A781D
:101D4000002A42D10A7833F8225003EB82046D0452
:101D50000BD533F82240264046F4404646F0800634
:101D600023F822600C7803EB8404228856060CD5F5
:101D7000228822F0F0021205120D42F4004242F0D5
:101D8000C00222800C7803EB840448F2800622888B
:101D90006C4D22F0F0021205120D42F4004242F0A6
:101DA000C00222800C7833F824202A4082F440526A
:101DB000324323F824200978614A33F82140224035
:101DC000324323F8212070BC70470A7833F8225040
:101DD00003EB82046D040BD533F82240264046F411
:101DE000404646F0800623F822600C7803EB84041A
:101DF000228852060CD5228822F0F0021205120D1C
:101E000042F4004242F0C00222800C7803EB8404CA
:101E1000228822F0F0021205120D42F4404242F0F4
:101E200080022280CA780C78012A61D033F82450CD
:101E3000434A2A4082F0200242F4004242F08002EB
:101E400023F82420097870BC33F8212022F0F00216
:101E50009204920C42F4004242F0800223F82120C6
:101E60007047B3F850600D693244A2F808440A780C
:101E7000B3F8504003EB021202F20C42A4B265B375
:101E80003E2D4DD86E08ED0748BF0136B602B6B2FA
:101E900016530C7833F8245003EB84026E040ED5ED
:101EA00033F8242022F0F0021205120D42F44042D1
:101EB00042F0800223F824200A7803EB8202118882
:101EC000204B70BC0B4083F4405343F4004343F079
:101ED0008003138070470120C0E6155B25F4F845A8
:101EE0002D042D0C1553155B45F400451553D0E713
:101EF00033F8242022F0C0021205120D42F40042F1
:101F000042F0800223F824209CE7238823F0C003BA
:101F10001B051B0D43F4004343F08003238052E76D
:101F20006E09ED06084D08BF06F1FF3645EA862525
:101F3000ADB21553ADE700BF8F89FFFF8F8FFFFF55
:101F4000BF8FFFFF8FBFFFFF0080FFFF30B40A7815
:101F50000D7B00EB82034C7815BB002C00F09980C0
:101F600030F8224064060ED530F8223023F0F0031A
:101F70001B051B0D43F4004343F0C00320F822303F
:101F80000B7800EB83031A88002030BC22F0C002DB
:101F90001205120D42F4004242F080021A8070478E
:101FA000002C41D130F8224064040ED530F82230A4
:101FB00023F0F0031B051B0D43F4404343F0800363
:101FC00020F822300B7800EB83031A8855060CD5D5
:101FD0001A8822F0F0021205120D42F4004242F07B
:101FE000C0021A800B7800EB830348F280051A8840
:101FF0003F4C22F0F0021205120D42F4004242F072
:10200000C0021A800A7830F8223023402B4320F88F
:1020100022300A78374B30F822100B401D4320F84D
:102020002250002030BC704730F8224064040ED5A6
:1020300030F8223023F0F0031B051B0D43F440431E
:1020400043F0800320F822300B7800EB83031A88DA
:1020500052063ED448F280051A88264C22F0F0023F
:102060001205120D42F4404242F080021A800A78B2
:1020700030F8223023402B4320F822300A781C4BC2
:1020800030F822100B401D4320F82250002030BCB5
:10209000704730F8224065040ED530F8223023F026
:1020A000F0031B051B0D43F4404343F0800320F86D
:1020B00022300B7800EB83031A88002030BC22F01A
:1020C000F0029204920C42F4004242F080021A8024
:1020D00070471A8822F0F0021205120D42F40042F5
:1020E00042F0C0021A800B7800EB8303B2E700BF16
:1020F0008FBFFFFFBF8FFFFFF0B44C788B69012CBF
:102100000A695AD0934298BF00260D7B88BF9E1A59
:102110008E6188BF13460A7815BBB0F8505000F2A4
:102120000C4412012C44002B00F0A8803E2B00F23E
:10213000C9805D08DB0748BF0135AD02ADB2A552CD
:102140000A7830F822107D4BF0BC0B4083F44053EA
:1021500043F4004343F0800320F82230002070470E
:10216000002CEED1B0F8505000F2044412012C447F
:10217000002B40F0B380A55A714E25F4F8452D048C
:102180002D0CA552A55A45F40045A5524C78002CBB
:1021900040F0AF80B0F850300A7800F20C441201E1
:1021A0001C44A35A23F4F8431B041B0CA352A35A48
:1021B00033439BB2A3520A78C3E7934286BF9C1A6B
:1021C000134600249AB20D7B013256088C619BB2F3
:1021D0004A6900F580676DB30D7830F825402D0110
:1021E0006406B0F850C055D500F20C446444635303
:1021F0004C8907EB44043EB102EB460332F8025B24
:10220000934224F8045BF9D10C784B7800EB8402FC
:10221000002B45D130F8243023F0F0031B051B0DB3
:1022200043F4004343F0C00320F824300A7800EB65
:10223000820216E0CC8807EB44043EB104EB86062C
:1022400032F8025B24F8045BA642F9D1B0F8505092
:102250000C7800F204422A442401A3520A7800EBCD
:1022600082021188374B0020F0BC0B4083F0300312
:1022700043F4004343F0800313807047A35A23F4D0
:10228000F8431B041B0CA352A35A43F40043A3526C
:102290000A7856E700F20444644463530C89A8E7C3
:1022A000012BDED130F8243023F0F0031B051B0D89
:1022B00043F4404343F0800320F824300A7800EBD5
:1022C0008202CEE75D09DF061D4B08BF05F1FF3531
:1022D00043EA85239BB2A3520A7832E73E2B16D8F5
:1022E0005D08DE0748BF0135AD02ADB2A5524C789E
:1022F000D4B1012C0A787FF424AFB0F8505000F22A
:102300000C4412019BB22C44A3520A7819E75E09CF
:10231000DD060B4D08BF06F1FF3645EA8625ADB256
:10232000A5524C78002CE4D1B0F850400B7800F264
:102330000C4222441B01D5520A7802E78FBFFFFFEF
:102340000080FFFFBF8FFFFF4B780A7830F8221024
:102350005BB90C4B0B4083F4805343F4004343F0D0
:10236000800320F8223000207047074B0B4083F099
:10237000100343F4004343F0800320F82230002090
:10238000704700BF8FBFFFFFBF8FFFFF0B7B002B8E
:1023900039D110B40B784C7800EB830214B330F8C9
:1023A000232052060BD530F8232022F0F00212052C
:1023B000120D42F4004242F0C00220F82320CB78F4
:1023C000012B1DD00A78194B30F8221010BC0B409D
:1023D00083F0200343F4004343F0800320F82230CD
:1023E0000020704730F8234064040ED41188104B4D
:1023F0000B4083F4405343F4004343F080031380C5
:10240000002010BC70470020704730F8232022F0D5
:10241000F0021205120D42F4404242F0800220F810
:1024200023200A7800EB8202E0E700BFBF8FFFFFA6
:102430008FBFFFFF11B98023A0F84C3000207047F8
:102440000020704700207047B0F84400704700BF7C
:102450000020704700EB4202580802F580621AD053
:10246000F0B4174606468D1C37F8044B013EA4B263
:102470004FEA142C05F8024C05F801CC05F10205D1
:10248000F2D1F0BC01EB400102EB8002D80744BF5F
:1024900013880B707047DB0744BF13880B707047BD
:1024A000292303800048704740000020292303802F
:1024B000004870476C0000202923038000487047C3
:1024C000C80000200023D0F8B822184682F8503007
:1024D000704700BF10B5D0F8B842E36C012B07D1AC
:1024E000D0F8BC326178DB68207898470023E36439
:1024F000002010BD0A23038000487047BC00002064
:1025000038B50446D0F8B852D0F8BC32697828788B
:10251000DB6898472A4620464023012101F0FCFB56
:10252000002038BD002210B50B7882B013F0600394
:10253000D0F8B842ADF8062022D0202B04D000F00D
:10254000A3FC022002B010BD4B78023B092BF6D849
:1025500001A252F823F000BF3D2600082F260008F4
:102560003F2500083F2500083F2500083F250008BB
:102570003F2500081F260008152600080D26000824
:102580004B780B2BDBD801A252F823F0F72500087B
:102590003F2500083F2500083F2500083F2500088B
:1025A0003F250008DD2500083F2500083F250008DD
:1025B0003F250008CD250008BD25000890F89C3275
:1025C000032BBCD18B780020A364BBE790F89C322E
:1025D000032BB4D104F14801012207E04B881B0A08
:1025E000222B32D0212B38D000210A4600F07EFC6D
:1025F000002002B010BD90F89C32032B9FD1022224
:102600000DF1060100F072FC00209BE78B780020A2
:10261000236497E74B8800201B0A636492E7012339
:10262000CA88E364214600F077FC00208AE704F1C1
:102630004001012200F05AFC002083E704F144012C
:10264000012200F053FC00207CE7CA88D0F8BC329D
:10265000212A28BF21221968C8E7CA880249212AED
:1026600028BF2122C2E700BF9800002038B50446E9
:102670000025812101F0FAFAE5622046012101F0EE
:10268000F5FAD4F8B832C4F86C514BB1D4F8BC3276
:102690009B689847D4F8B80201F050FBC4F8B852D0
:1026A000002038BDF8B504460125402303228121CE
:1026B00001F0CCFA294640230322E562204601F0CE
:1026C000C5FAC4F86C51542001F034FBC4F8B802C8
:1026D00078B100270646D4F8BC3280F850705B68A9
:1026E0009847324629462046402301F015FB3846DC
:1026F000F8BD2846F8BD00BF38B590F89C52032DB0
:1027000001D0002038BDD0F8B85295F850400CB137
:10271000012038BD13460A46012185F85010812159
:1027200001F0ECFA204638BD19B1C0F8BC12002007
:1027300070470220704700BF88B108B5D0F8B432A6
:1027400013B10023C0F8B43209B1C0F8B0120123AC
:10275000027080F89C3201F031FA002008BD02209E
:10276000704700BF19B1C0F8B412002070470220B2
:10277000704700BF08B501F05BFA002008BD00BF3C
:1027800008B5D0F8B4321BB11B68984700B908BD32
:10279000022008BD08B5D0F8B4325B689847002025
:1027A00008BD00BF38B5044600F52A75284600F07C
:1027B00057FB012094F8A812B4F8AE2201F01F03D1
:1027C0008342C4F89402C4F8982215D00ED3022B89
:1027D00006D001F08001204601F056FA002038BDF5
:1027E0002946204600F0A6FA002038BD294620469A
:1027F00000F0F6F8002038BD2946204600F06EFAB9
:10280000002038BD70B5054641B9D0F89432032B8D
:102810000FD0052B0C462ED0002070BDD0F8B4325E
:102820009B69C3B190F89C22032A14D198470020D9
:1028300070BD1646D0F86031D0F8642193420CD9AF
:102840009B1A9A42C0F860318CBF9AB292B231465C
:1028500000F072FBE0E7022070BDD0F8B4321B69D3
:1028600023B190F89C22032A00D19847284600F013
:102870006BFB002070BDC5F8941201F005FA2046EC
:1028800070BD00BF70B5044681B91346D0F89422DC
:10289000022A19D032F0040302D1802101F0F4F9A8
:1028A00094F8A0320020012B0BD070BDD0F8B432C8
:1028B0005B6963B390F89C22032A28D198470020D3
:1028C00070BD84F8A00270BDD0E90862964220D89D
:1028D000C369B3FBF2F502FB15350DB99A4226D94F
:1028E000D4F8B432DB682BB194F89C22032A01D1CE
:1028F000204698478021204601F0C6F9204600F086
:102900002FFB94F8A0320020012BCED1D9E7022072
:1029100070BDB21A0D460262194692B200F0F4FA86
:102920002B462A462946204601F0F6F9B8E7D0F8AA
:1029300098229342D4D22A4600F0E6FAC4F898527C
:10294000EEE700BF70B5002240260446012511467F
:10295000334601F07BF933468021C4F85851C4F85E
:1029600064612046002201F071F90021D4F8B832E8
:10297000A561666284F89C52C4F894126160C4F840
:10298000A41223B1D4F8B43220465B6898470020E3
:1029900070BD00BF01740020704700BF03460422D1
:1029A00090F89C12002083F89D1283F89C227047B7
:1029B00090F89C32042B04BF90F89D3280F89C3232
:1029C0000020704790F89C22032A01D00020704715
:1029D00008B5D0F8B432DB6903B19847002008BDD0
:1029E00030B50B7883B003F06003202B0D4604460E
:1029F00028D0402B26D053B18021204601F044F945
:102A00002046002101F040F9002003B030BD4B7892
:102A1000092BF1D801A252F823F000BF992A00082F
:102A2000C52A0008F9290008E12A0008F929000848
:102A3000ED2A00082B2B0008F9290008612B00085B
:102A4000572A0008D4F8B43229469B682046984794
:102A5000002003B030BD89789F4D01292970CBD863
:102A600090F89C32022B00F00D81032B40F0FE8089
:102A7000002900F027814168012909D0C9B2FFF778
:102A800089FE297820466160FFF77AFE0228B3D0DC
:102A9000204600F059FAB7E790F89C320322013B38
:102AA000022BA9D8CB88022BA6D10121D0F8A432C1
:102AB000C16003B1C260022204F10C01204600F0A3
:102AC00015FAA1E790F89C32013B022B94D84B8871
:102AD000012B99D10023C0F8A43200F035FA93E716
:102AE0004B88012B90D1C0F8A432D1E78B88002B02
:102AF00082D1CB88002B7FF47FAF4D887F2D3FF6AE
:102B00007BAF90F89C32032B3FF476AFE9B280F8AC
:102B10009E1201F0E5F8204600F016FA002D00F0B4
:102B2000CD80022384F89C326EE700234A88ADF8FA
:102B30000630130A013B062B3FF65EAF01A151F8A8
:102B400023F000BFF92B0008E12B0008092C000836
:102B5000F9290008F9290008CB2B0008872B000869
:102B6000CA88012A7FF448AF90F89C32002B3FF4CA
:102B700043AF022B40F29480032B7FF43DAF011D45
:102B800000F0B4F940E7037C002B7FF435AFD0F8B8
:102B9000B4320DF106001B6B984707234370BDF854
:102BA0000630EA886BB1002A3FF472AF934228BF27
:102BB000134601461A462046ADF8063000F096F955
:102BC000EA88002A7FF420AF62E7037C002B7FF4C1
:102BD00013AFD0F8B4320DF106005B6B9847DEE717
:102BE000027CD0F8B432002A61D19B6A0DF1060054
:102BF000984702234370D2E7D0F8B0320DF10601B6
:102C00001B68007C9847CAE7D2B2052A3FF6F4AEAB
:102C1000DFE802F026201A140E03D0F8B0329B69C8
:102C2000002B3FF4E9AE0DF10601207C9847B6E792
:102C3000D0F8B0325B69002BF5D1DDE6D0F8B032C8
:102C40001B69002BEFD1D7E6D0F8B032DB68002B40
:102C5000E9D1D1E6D0F8B0329B68002BE3D1CBE6C6
:102C6000D0F8B0325B68002BDDD1C5E6802101F0E1
:102C70000BF80021204601F007F829782046FFF7DD
:102C800089FDC1E600293FF403AF01210323416020
:102C900080F89C32FFF774FD02287FF4F9AEABE6B2
:102CA0000023014641F8083F00F020F9ACE6DB6A5A
:102CB0000DF1060098470223437070E7012384F862
:102CC0009C32A1E60223416080F89C32FFF762FD4E
:102CD000204600F039F997E6BC01002038B50B78A2
:102CE0000D4603F06003202B04460CD0402B0AD085
:102CF0004BB18021204600F0C7FF2046002100F0A4
:102D0000C3FF002038BD94F89C32013B022BF0D861
:102D10002B79012BEDD8D4F8B43229469B68204694
:102D20009847EB88002BECD10028EAD1204600F030
:102D30000BF9E6E770B50B78044603F06003202B2F
:102D40000CD0402B0AD083B18021204600F09CFF9C
:102D50002046002100F098FF002070BDD4F8B43266
:102D600020469B689847002070BD4B788A88012BCD
:102D7000D5B23ED014D3032BE6D190F89C32022B6F
:102D800046D0032BE0D14B8833B96A0604D0CB88F8
:102D900013B9294600F078FF204600F0D5F8DBE7AC
:102DA00090F89C32022B3DD0032BCDD105F00F03C0
:102DB00003EB8303120600EB830342D4D3F85831AC
:102DC000002BC1D005F07F0303EB830600EB8606E2
:102DD00006F5AA7633B12946204600F071FF002897
:102DE0003BD00123336031462046022200F07EF8BA
:102DF000B2E790F89C32022B0AD0032BA4D14B8867
:102E0000002BA9D16E06C7D0294600F04BFFC3E7BF
:102E10006B0699D0294600F037FF2046802100F04C
:102E200033FF99E768068FD1002311064CBF04F1E8
:102E3000140104F5AA7120460B60022200F056F836
:102E40008AE79B69002B3FF47FAF05F07F035E1C90
:102E500006EB860600EB8606BCE73060C3E700BFE2
:102E60000B7803704B784370CA788B7803EB02239E
:102E700043804A790B7903EB02238380CA798B79EB
:102E800003EB0223C380704710B50446802100F095
:102E9000FBFE2046BDE81040002100F0F5BE00BF5B
:102EA00000B3037830B4F3B10446002314F8015F93
:102EB0000133DBB2002DF9D15B0002330324138010
:102EC0000B704C7004785CB1022300255A1CD2B2FE
:102ED000CC548D5410F8014F0233DBB2002CF5D1E5
:102EE00030BC704770470223E8E700BF38B513468F
:102EF00002250A46C0E90733C0F89452002100F0C9
:102F0000FDFE002038BD00BF08B513460A4600216B
:102F100000F0F4FE002008BD38B5134603250A462C
:102F2000C0F85C31C0F86031C0F89452002100F064
:102F3000F3FE002038BD00BF08B513460A46002145
:102F400000F0EAFE002008BD08B504220023C0F806
:102F5000942219461A4600F0D1FE002008BD00BF99
:102F600008B505220023C0F8942219461A4600F03D
:102F7000D3FE002008BD00BF00200D4A0D4BD168D4
:102F800021F08071D160D16841F08071D1601A6800
:102F900022F001021A601A6842F001021A605860B9
:102FA00000BF00BF00BF5868B0FA80F0400970470A
:102FB000F0ED00E0001000E030B5012200244FF4F5
:102FC000803302254FF4801195B00AA80A920E9220
:102FD0000B93129313910C94059401940D94CDE9E5
:102FE0000F44CDE90644CDE90844CDE902440494F8
:102FF0001195FEF795FA0F224FF48063294605A834
:1030000005920893069507940994FEF781FC102316
:1030100001A804940193FEF757FD15B030BD00BF21
:103020004FF4807220215C4B1A6119615A61402271
:10303000010454BF5A611A6100BF2022564B41045B
:103040005A611A614FF0400254BF5A611A6100BFC1
:103050002022514B81045A611A614FF0400254BF43
:103060005A611A6100BF20224B4BC1045A611A6198
:103070004FF0400254BF5A611A6100BF2022464BF4
:1030800001055A611A614FF0400254BF5A611A613A
:1030900000BF2022404B41055A611A614FF04002A7
:1030A00054BF5A611A6100BF20223B4B81055A610F
:1030B0001A614FF0400254BF5A611A6100BF2022CA
:1030C000354BC1055A611A614FF0400254BF5A6135
:1030D0001A6100BF2022304B01065A611A614FF07D
:1030E000400254BF5A611A6100BF20222A4B410698
:1030F0005A611A614FF0400254BF5A611A6100BF11
:103100002022254B81065A611A614FF0400254BFBC
:103110005A611A6100BF20221F4BC1065A611A6111
:103120004FF0400254BF5A611A6100BF20221A4B6F
:1031300001075A611A614FF0400254BF5A611A6187
:1031400000BF2022144B41075A611A614FF0400220
:1031500054BF5A611A6100BF20220F4B81075A6188
:103160001A614FF0400254BF5A611A6100BF202219
:10317000094BC1075A611A614FF040024CBF1A61F6
:103180005A6100BF2022044B5A611A6100BF4FF4FC
:1031900080721A61704700BF000C014000000000FF
:1031A0002DE9F04F4FF000088BB0FDF7E3FBFFF780
:1031B00003FFCDE90688CDE90888A34B424699690B
:1031C000012641F010019961986940F21E4100F01A
:1031D0001000029002989C699C4844F020049C6175
:1031E0009D69032405F020050395039D9D6945F025
:1031F00004059D619F69022507F004070497049F59
:103200009F6947F008079F619B6903F008030593D6
:10321000059BFDF74DFD424648F2E0118C48FDF755
:1032200047FD4FF4604306A98A48CDE90634FDF70F
:1032300045FC40F2E13306A98448CDE90634FDF7A8
:103240003DFC40F21E4306A98048CDE906360995AB
:10325000CDF82080FDF732FC47F6076306A97C48CD
:10326000CDE90634FDF72AFC48F2E01306A97848B8
:103270000693CDE907680995FDF720FC00F012FCE4
:10328000FFF77AFE3220FDF799FB42F23830FFF764
:10329000C7FE0A20FDF792FB6F4B704EA3F800802B
:1032A0006F4B6B4C83F800806E4B684DA3F8008029
:1032B0006D4BA3F800806D4BA3F800806C4BA3F816
:1032C0000080DFF8B881DFF8B891654B1F78FFB256
:1032D000012F00F0F981604B1B88012BF5D1654B64
:1032E0001F88002FEDD0002320274FF008081A4632
:1032F000009302236B61604B53F82200FDF76AF8DC
:103300004FA3D3E90023FDF7DFF8FDF7EFFA4FF401
:1033100080714022216183B227616161626100BFD7
:1033200067612761226100BF99046761276154BF0B
:103330006261226100BF4022D9046761276154BFE6
:103340006261226100BF402219056761276154BF95
:103350006261226100BF402259056761276154BF45
:103360006261226100BF402299056761276154BFF5
:103370006261226100BF4022D9056761276154BFA5
:103380006261226100BF402219066761276154BF54
:103390006261226100BF402259066761276154BF04
:1033A0006261226100BF402299066761276154BFB4
:1033B0006261226100BF4022D9066761276154BF64
:1033C0006261226100BF402219076761276154BF13
:1033D0006261226100BF402259076761276154BFC3
:1033E0006261226100BF402299076761276154BF73
:1033F0006261226100BF13F0010F4FF0400367616B
:1034000027610CBF6361236100BF6761276100BF53
:103410004FF4807340222361C0F38F302361276112
:103420006361626100BF67612761226100BF83043D
:103430006761276158BF626124E000BFAFF300807D
:1034400028D53E1D8F79154000100240000801402C
:10345000000C014000100140B4030020540600207D
:10346000BD010020BE010020C2010020C4010020D7
:10347000C004002098060020C40400205806002044
:103480006407002048BF226100BF4023C104676178
:10349000276154BF6361236100BF40230205676158
:1034A000276154BF6361236100BF40234105676109
:1034B000276154BF6361236100BF402382056761B8
:1034C000276154BF6361236100BF4023C105676169
:1034D000276154BF6361236100BF40230206676117
:1034E000276154BF6361236100BF402341066761C8
:1034F000276154BF6361236100BF40238206676177
:10350000276154BF6361236100BF4023C106676127
:10351000276154BF6361236100BF402302076761D5
:10352000276154BF6361236100BF40234107676186
:10353000276154BF6361236100BF40238207676135
:10354000276154BF6361236100BF4023C0076761E7
:10355000276154BF6361236100BF6761276100BFBA
:103560004FF480720099524B33F811302261C5F844
:10357000148000BF10226A6100BF0422190654BFE4
:103580006A612A6100BFC5F8108000BF0422580696
:10359000C5F8148054BF6A612A6100BFC5F8108065
:1035A00000BF04229906C5F8148054BF6A612A61DD
:1035B00000BFC5F8108000BF0422D806C5F81480EB
:1035C00054BF6A612A6100BFC5F8108000BF0422A1
:1035D0001907C5F8148054BF6A612A6100BFC5F895
:1035E000108000BF04225807C5F8148054BF6A61D8
:1035F0002A6100BFC5F8108000BF04229907C5F8F2
:10360000148054BF6A612A6100BFC5F8108000BFF2
:1036100013F0010F4FF00403C5F814800CBF6B6169
:103620002B6100BFC5F8108000BFC5F8148000BF33
:1036300000BF0422022310214CF2503929616A6133
:103640002B61009A1B4BDFF87CA053F822303360CB
:103650004B4518D9A3F54343503B3360DAF804B027
:10366000FEF72CFA144BA3FB0032920C09FB02F27A
:10367000DAF80430A3EB0B039342F9D30F4B1A781B
:103680003368012AE4D123B10C4A1278002A00F0F1
:10369000D98002236B61009B03F10109084B1FFADB
:1036A00089F21B88009293423FF623AE09E600BFE1
:1036B000F80300202402002083DE1B43BD0100200C
:1036C00098060020001000E04FF0000A964B974A41
:1036D00093F800B0964B82F800A01B78954A5B45A2
:1036E000A2F800A000F0C38093493F22481E00F0DA
:1036F00099FC8F4B914A1B78A2F800A0904A9B45F9
:10370000A2F800A018BF534600F0B480864A88494A
:1037100052784978914202D13B46884A1780824AC2
:10372000834992788978914203D10133834A9BB2CD
:1037300013807D4A7E49D278C978914203D1013302
:103740007E4A9BB21380784A79491279097991426D
:1037500003D10133794A9BB21380734A7449527979
:103760004979914203D10133744A9BB213806E4A66
:103770006F4992798979914203D101336F4A9BB2A3
:103780001380694A6A49D279C979914203D10133D8
:103790006A4A9BB21380644A6549127A097A914257
:1037A00003D10133654A9BB213805F4A6049527A64
:1037B000497A914263D00C235D495E488A7A03803E
:1037C000CB7A60490A80604A138060486049D1E939
:1037D0000032426003600A7A4B7A027243725D4B98
:1037E0005D4A18685968106098685160D96810334C
:1037F000D1605A4990608B4202F11002F1D10B4620
:103800004FF400479B880968484693801160402226
:1038100027614146FEF770FF676100214022404664
:1038200000F019FC484B1F88464B791E1B888B42C1
:1038300004DB434B1B88012B00F0A2800023484A85
:10384000138042E5DFF834B10193DBF804A0FEF702
:1038500035F95946434BA3FB0032019B920C03FB05
:1038600002F34A68A2EB0A029A42FAD311E7344BF8
:10387000A3F800A00123314A0227138046E70C2059
:103880002B492E4A013391F80AA09BB213802D4A8E
:103890001FFA8AF71780274AC97A10802A480A2B0C
:1038A000018092D1632F90D864298ED820494FF09F
:1038B000010C084602464FF0150B8B7B90F80DE08B
:1038C00029481B0420F81A70177B1D48C97C03EB9C
:1038D0000E233B44977CA0F800C0090492F80FC067
:1038E00001EB07212148577C03EB0C6340F82A3099
:1038F000CB19117D17460F4A1D48A2F800B01D4A8A
:1039000003EB016342F82A3003463F7C1A4A4168C0
:1039100022F81A7000680D4F1A7A5B7A7960386065
:103920003A727B725BE700BF0C010020BD010020F2
:10393000B8030020C2010020B9030020C401002008
:10394000C0040020BE010020980600205806002078
:10395000F4000020C203002062060020F2030020D1
:10396000B403002083DE1B439C060020C404002017
:103970000001002024020020F8030020001000E0D5
:103980000023144A138007B39A4618461A46DFF8F4
:1039900048C03CF802EB013372459AB203D14FF0B4
:1039A000010A504480B29742F3D8BAF1000F3FF4B5
:1039B00045AF084B874218807FF440AF8AB201328E
:1039C00052000021044800F046FB0123034A138003
:1039D00087E400BFC00100209C060020B403002043
:1039E000704700BF0D4B82B09A690D4942F0010249
:1039F0009A619A6902F001020092009ADA6942F033
:103A00008052DA61DB6903F080530193019B4B68BC
:103A100023F0E0634B6002B0704700BF001002402B
:103A200000000140704700BFFEE700BFFEE700BF97
:103A3000FEE700BFFEE700BF704700BF704700BF52
:103A4000704700BFFCF7A8BF0148FDF7CBB900BF26
:103A5000280A002030B44FF41F054FF000640E4BCD
:103A60000E4A19680E4841F00101196059680A4070
:103A70005A601A6822F0847222F480321A601A683E
:103A800022F480221A605A6822F4FE025A609D6075
:103A9000846030BC704700BF001002400000FFF897
:103AA00000ED00E008B5002210491148FEF744FE81
:103AB000C0B910490E48FEF755FE80B90E490C48B2
:103AC000FEF732FE40B90A48FEF754FE00B908BDC1
:103AD000BDE80840FFF784BFFFF782FFF3E7FFF779
:103AE0007FFFEBE7FFF77CFFE3E700BF500100201B
:103AF00064070020080000204001002002680E4BEF
:103B00009A4200D07047002203F5DA3310B5DC6921
:103B100082B044F40004DC61DB69114603F4000365
:103B200001931420019BFCF76DFF142002B0BDE847
:103B30001040FCF79DBF00BF005C004000F50C7119
:103B4000D0F86802FEF72EBE00EB4113D3F83C21FB
:103B5000D0F86802FEF756BE00EB4113DA6BD0F8DE
:103B60006802FEF78FBE00BFD0F86802FEF72ABFDA
:103B7000836810B5022B044601D0FFF731FFD4F85B
:103B800068020121FEF706FFD4F86802BDE8104084
:103B9000FEF7D8BE10B50446D0F86802FEF7FEFE68
:103BA000A36923B1024A136943F00603136110BDF0
:103BB00000ED00E0D0F86802FEF7FABE38B5044622
:103BC000002208250221184B1848C4F8C03218609A
:103BD0001846C3F86842C3E90151C3E906221A62D4
:103BE000FDF76AF808B1FFF7FBFE00221823114623
:103BF000D4F8C002FDF778FC582300228021D4F8C5
:103C0000C002FDF771FC982300228121D4F8C00284
:103C1000FDF76AFCD4F8C002D82300220121FDF789
:103C200063FC002038BD00BF280A0020005C004073
:103C300008B5D0F8C002FDF7BDF8032896BF024BC7
:103C40000220185C08BD00BFA040000810B51C464B
:103C5000D0F8C00213462246FDF746FB032896BF64
:103C6000014B0220185C10BDA040000808B5D0F838
:103C7000C002FDF76BFB032896BF024B0220185CC5
:103C800008BD00BFA040000808B5D0F8C002FDF78D
:103C9000B7FB032896BF024B0220185C08BD00BF8B
:103CA000A040000808B5D0F8C002FDF7E5FB0328E6
:103CB00096BF024B0220185C08BD00BFA040000860
:103CC0000A06D0F8C03204D403EB411393F82A015A
:103CD000704701F07F0103EB411393F82A0070470E
:103CE00008B5D0F8C002FDF7EBFA032896BF024BE7
:103CF0000220185C08BD00BFA040000808B5D0F83D
:103D0000C002FDF767FB032896BF024B0220185C38
:103D100008BD00BFA040000808B5D0F8C002FDF7FC
:103D200041FB032896BF024B0220185C08BD00BF70
:103D3000A040000800487047C8010020704700BF3D
:103D4000704700BF0020704730B44FF48064204BB0
:103D50002049D3F8B83220481A1D8A42046102D99A
:103D60000A1D934229D3D3E90040D3E902250C6010
:103D700048601C6958698A60CD609A69DD690C6188
:103D800048611C6A586A8A61CD619A6ADD6A0C6270
:103D900048621C6B586B8A62CD62D3E90E230C63B8
:103DA00048638A63CB6301204FF480620B490A4B5E
:103DB000087030BC00205A6170474A1E013B3F31F9
:103DC00013F8010F02F8010F9142F9D1EBE700BFA0
:103DD00064070020B803002000080140BD01002056
:103DE00000207047122301480B8070476C010020AF
:103DF000042301480B8070478001002010B5044C5B
:103E00000A4604482146FFF74BF8204610BD00BF84
:103E1000940C0020D040000810B5044C0A46044819
:103E20002146FFF73DF8204610BD00BF940C00204E
:103E3000E440000810B5044C0A4604482146FFF748
:103E40002FF8204610BD00BF940C0020A4400008AD
:103E500010B5044C0A4604482146FFF721F82046D5
:103E600010BD00BF940C0020B84000081A20444A3E
:103E7000444B12681B680880D21801D14248704731
:103E800010B40024130FD8B2092B40493E4B94BF05
:103E90003030373009689870C2F303600928DC704D
:103EA000C4B294BF303437341C710024C2F30350C1
:103EB00009285C71C4B294BF303437349C7100243B
:103EC000C2F303400928DC71C4B294BF30343734E4
:103ED0001C720024C2F3033009285C72C4B294BF80
:103EE000303437349C720024C2F303200928DC727A
:103EF000C4B294BF303437341C730024C2F30310AF
:103F0000092802F00F025C73C4B298BF3034D0B2FB
:103F100088BF3734092A94BF3030373018740020F6
:103F20000A0F092A5874D0B294BF303037309874D1
:103F30000020C1F30362092AD874D0B294BF303094
:103F4000373018750020C1F30352092A5875C1F3A0
:103F50000341D0B298BF3030CAB288BF3730092988
:103F600094BF303237329C739875002400201A7643
:103F70000022D875DC735A76034810BC704700BF26
:103F8000E8F7FF1FF0F7FF1F84010020ECF7FF1F89
:103F9000002103E00B4B5B58435004310A480B4BA4
:103FA00042189A42F6D30A4A02E0002342F8043B40
:103FB000084B9A42F9D3FFF74DFD00F00FF8FFF7D9
:103FC000EFF870470441000800000020A001002025
:103FD000A0010020940E0020FEE7000070B500252F
:103FE0000C4E0D4CA41BA410A54209D100F03CF8C6
:103FF00000250A4E0A4CA41BA410A54205D170BD91
:1040000056F8253098470135EEE756F825309847A1
:104010000135F2E7FC400008FC400008FC400008C5
:1040200000410008884210B501EB020307D8421E88
:1040300099420AD011F8014B02F8014FF8E7834288
:10404000F5D98118D21AD34200D110BD13F8014D11
:1040500001F8014DF7E703460244934200D170474F
:1040600003F8011BF9E70000F8B500BFF8BC08BC75
:104070009E467047F8B500BFF8BC08BC9E46704726
:1040800002030405060708090A0B0C0D0E0F101099
:1040900000000000000000000102030406070809F8
:1040A00000020102437573746F6D20484944204338
:1040B0006F6E666967000000437573746F6D20480A
:1040C000494420496E7465726661636500000000B2
:1040D00053544D6963726F656C656374726F6E697A
:1040E000637300005369676E616C2047656E65728B
:0C40F00061746F72205665723100000090
:0440FC003501000882
:0441000011010008A1
:104104000100000010000000A52600086D2600082C
:104114002525000800000000D5240008C524000857
:10412400012500080000000000000000000000005D
:10413400AD240008A1240008B9240008F5240008CF
:1041440009022900010100C0320904000002030031
:10415400000009211101000122210007058103400B
:1041640000050705010340000500000009022900BD
:10417400010100C03209040000020300000009210B
:1041840011010001222100070581034000050705F4
:104194000103400005000000092111010001222152
:1041A400000000000000000000000000000000000B
:1041B4000000000000000000000000000A060002E9
:1041C400000000400100000009022900010100C0B4
:1041D400320904000002030000000921110100015A
:1041E4002221000705810340000507050103400063
:1041F400050000005369476E56314465457200005E
:104204005369476E563144654F4B00005369476EFE
:104214005631486F737400000024F4000600FF094F
:1042240001A10119012940150026FF0075089540D8
:10423400810219012940750895409102C0000000CF
:104244001C010020453D0008E13D0008493D0008EF
:10425400E53D0008F13D0008FD3D0008193E000859
:104264006D3E0008353E0008513E00081201000270
:1042740000000040C016DF05000201020301000037
:10428400040309041A0300000000000000000000F9
:10429400000000000000000000000000000000001A
:0400000508003F911F
:00000001FF
